:030000000208C52E
:0C08C500787FE4F6D8FD75810902080078
:10080000D2A0C2A1C2A2D2A37FFA7E001208A11276
:100810000895C2A0D2A1D2A2C2A37FFA7E0012087C
:10082000A1120895D2A0C2A1C2A2D2A3E4F508F5F4
:1008300009D2A4D2A57F057E001208A1C2A4C2A538
:100840007F0F7E001208A10509E50970020508C3A3
:100850009414E508940040D9120895C2A0D2A1D200
:10086000A2C2A3E4F508F509D2A4D2A57F057E00B3
:100870001208A1C2A4C2A57F0F7E001208A105091B
:10088000E50970020508C39414E508940040D912E4
:050890000895020800BC
:0C089500C2A0C2A1C2A2C2A37F327E009A
:1008A100E4FDFCC3ED9FEC9E5019758901758CD850
:1008B100758AF0D28C308DFDC28CC28D0DBD0001C8
:0308C1000C80E0C8
:0108C4002211
:00000001FF
